:100000000C942A000C943F000C943F000C943F0089
:100010000C943F000C943F000C943F000C943F0064
:100020000C943F000C943F000C943F000C943F0054
:100030000C943F000C943F000C943F000C943F0044
:100040000C943F000C943F000C943F000C943F0034
:100050000C943F0011241FBECFE5D4E0DEBFCDBF1E
:1000600010E0A0E6B0E0E2ECF0E002C005900D92F6
:10007000A636B107D9F70E9441000C945F000C949A
:10008000000087E689B910BC88E18AB980B586602E
:1000900080BDE0E6F0E0CF0104C05D9BFECF31966D
:1000A0002CB920812111F9CF2FEF33ED40E32150FE
:1000B00030404040E1F700C00000FC01F2CFF8946E
:0200C000FFCF70
:0600C200554152540000FC
:00000001FF
