S014000072656365697665725F4156522E7372656373
S11300000C942A000C9434000C9434000C943400A6
S11300100C9434000C9434000C9434000C9434008C
S11300200C9434000C9434000C9434000C9434007C
S11300300C9434000C9434000C9434000C9434006C
S11300400C9434000C9434000C9434000C9434005C
S11300500C94340011241FBECFE5D4E0DEBFCDBF25
S11300600E9436000C944A000C940000A09A87E683
S113007089B910BC88E18AB980B5866080BD5F9B70
S1130080FECF8CB18E3411F4A89AF9CF8634B9F727
S10B0090A898F5CFF894FFCF06
S9030000FC
