S017000073696E676C655F6269745F636F64652E73726563F3
S11300000C942A000C9434000C9434000C943400A6
S11300100C9434000C9434000C9434000C9434008C
S11300200C9434000C9434000C9434000C9434007C
S11300300C9434000C9434000C9434000C9434006C
S11300400C9434000C9434000C9434000C9434005C
S11300500C94340011241FBECFE5D4E0DEBFCDBF25
S11300600E9436000C9445000C940000D09A91E054
S11300708BB389278BBB2FE936E881E021503040D0
S11100808040E1F700C00000F3CFF894FFCFFA
S9030000FC
