S0160000375F7365676D656E745F636F64652E737265638B
S11300000C942A000C9434000C9434000C943400A6
S11300100C9434000C9434000C9434000C9434008C
S11300200C9434000C9434000C9434000C9434007C
S11300300C9434000C9434000C9434000C9434006C
S11300400C9434000C9434000C9434000C9434005C
S11300500C94340011241FBECFE5D4E0DEBFCDBF25
S11300600E9436000C94A7000C9400008FEF84BB10
S1130070FFE3E6E07BE56FE456E64DE63DE727E087
S11300809FE78FE6F5BBAFE9B6E8C1E0A150B04009
S1130090C040E1F700C00000E5BBAFE9B6E8C1E04D
S11300A0A150B040C040E1F700C0000075BBAFE90B
S11300B0B6E8C1E0A150B040C040E1F700C0000084
S11300C065BBAFE9B6E8C1E0A150B040C040E1F77C
S11300D000C0000055BBAFE9B6E8C1E0A150B04094
S11300E0C040E1F700C0000045BBAFE9B6E8C1E09D
S11300F0A150B040C040E1F700C0000035BBAFE9FB
S1130100B6E8C1E0A150B040C040E1F700C0000033
S113011025BBAFE9B6E8C1E0A150B040C040E1F76B
S113012000C0000095BBAFE9B6E8C1E0A150B04003
S1130130C040E1F700C0000085BBAFE9B6E8C1E00C
S1130140A150B040C040E1F700C000009BCFF8943C
S1050150FFCFDB
S9030000FC
