S027000070726F746F636F6C5F6F665F726563656976655F73657269616C5F636F64652E737265633C
S11300000C942A000C9434000C9434000C943400A6
S11300100C9434000C9434000C9434000C9434008C
S11300200C9434000C9434000C9434000C9434007C
S11300300C9434000C9434000C9434000C9434006C
S11300400C9434000C9434000C9434000C9434005C
S11300500C94340011241FBECFE5D4E0DEBFCDBF25
S11300600E9436000C9443000C94000087E689B982
S113007010BC88E18AB980B5866080BD5F9BFECFE5
S10D00808CB185BBFBCFF894FFCFD1
S9030000FC
