S01700007472616E736D69747465725F4156522E7372656308
S11300000C942A000C9434000C9434000C943400A6
S11300100C9434000C9434000C9434000C9434008C
S11300200C9434000C9434000C9434000C9434007C
S11300300C9434000C9434000C9434000C9434006C
S11300400C9434000C9434000C9434000C9434005C
S11300500C94340011241FBECFE5D4E0DEBFCDBF25
S11300600E9436000C9460000C940000A09885B3A4
S1130070896085BB87E689B910BC88E18AB986E0C6
S113008080BD8EE496E498990CC05D9BFECF8CB93C
S11300902FEF33ED40E3215030404040E1F700C002
S11300A000009B99F0CF5D9BFECF9CB92FEF33ED01
S11300B040E3215030404040E1F700C00000E3CF6E
S10700C0F894FFCFDE
S9030000FC
