S01D0000696E7465726E616C5F70756C6C5F75705F636F64652E7372656350
S11300000C942A000C9434000C9434000C943400A6
S11300100C9434000C9434000C9434000C9434008C
S11300200C9434000C9434000C9434000C9434007C
S11300300C9434000C9434000C9434000C9434006C
S11300400C9434000C9434000C9434000C9434005C
S11300500C94340011241FBECFE5D4E0DEBFCDBF25
S11300600E9436000C944F000C94000087E08ABB79
S113007014BA8FEF85BB37E023E091E083B38E3F62
S113008011F49BBBFBCF83B38D3F11F42BBBF6CF95
S113009083B38B3F11F43BBBF1CF1BBAEFCFF89482
S10500A0FFCF8C
S9030000FC
