S01D0000696E746572727570745F325F70696E735F636F64652E7372656376
S11300000C942A000C9446000C9451000C94340077
S11300100C9434000C9434000C9434000C9434008C
S11300200C9434000C9434000C9434000C9434007C
S11300300C9434000C9434000C9434000C9434006C
S11300400C9434000C9434000C9434000C9434005C
S11300500C94340011241FBECFE5D4E0DEBFCDBF25
S11300600E9436000C945C000C940000D09AD69A3E
S1130070BB9A8A9882B38C6082BB85B78A6085BF3D
S11300808BB7806C8BBF7894D89AFECF1F920F9257
S11300900FB60F921124DE9A0F900FBE0F901F908F
S11300A018951F920F920FB60F921124C39A0F90B6
S10F00B00FBE0F901F901895F894FFCF1E
S9030000FC
