S019000075736167655F6F665F4144435F636F64652E73726563A1
S11300000C942A000C943C000C943C000C943C008E
S11300100C943C000C943C000C943C000C943C006C
S11300200C943C000C943C000C943C000C943C005C
S11300300C943C000C943C000C943C000C943C004C
S11300400C943C000C943C000C943C000C943C003C
S11300500C943C0011241FBECFE5D4E0DEBFCDBF1D
S113006020E0A0E6B0E001C01D92A236B207E1F79D
S11300700E943E000C9456000C9400001ABA8FEFB4
S113008084BB379A86B1836086B93D9A389A369A8A
S11300903699FECF85B190E0909361008093600023
S11300A0809160009091610085BBF1CFF894FFCFFF
S9030000FC
