S01F000070726F746F636F6C5F6F665F73657269616C5F636F64652E7372656386
S11300000C942A000C9434000C9434000C943400A6
S11300100C9434000C9434000C9434000C9434008C
S11300200C9434000C9434000C9434000C9434007C
S11300300C9434000C9434000C9434000C9434006C
S11300400C9434000C9434000C9434000C9434005C
S11300500C94340011241FBECFE5D4E0DEBFCDBF25
S11300600E9436000C944B000C94000087E689B97A
S113007010BC88E18AB986E080BD81E45D9BFECF37
S11300808CB92FEF39E698E1215030409040E1F7E8
S10D009000C00000F3CFF894FFCF86
S9030000FC
