S01C0000426C696E6B696E675F345F4C6564735F636F64652E7372656366
S11300000C942A000C9434000C9434000C943400A6
S11300100C9434000C9434000C9434000C9434008C
S11300200C9434000C9434000C9434000C9434007C
S11300300C9434000C9434000C9434000C9434006C
S11300400C9434000C9434000C9434000C9434005C
S11300500C94340011241FBECFE5D4E0DEBFCDBF25
S11300600E9436000C945E000C9400008FE08ABB62
S113007031E023E097E03BBBE3EDF0E33197F1F7A8
S113008000C000002BBBE3EDF0E33197F1F700C0B3
S113009000009BBBFFE946E851E0F150404050406E
S11300A0E1F700C000008BBB6FE9E6E8F1E06150C6
S11300B0E040F040E1F700C00000DDCFF894FFCF4E
S9030000FC
