S01700005049525F73656E736F725F636F64652E737265632F
S11300000C942A000C9434000C9434000C943400A6
S11300100C9434000C9434000C9434000C9434008C
S11300200C9434000C9434000C9434000C9434007C
S11300300C9434000C9434000C9434000C9434006C
S11300400C9434000C9434000C9434000C9434005C
S11300500C94340011241FBECFE5D4E0DEBFCDBF25
S11300600E9436000C9448000C94000084E087BB86
S1130070B199FECFB09BFCCFC29A2FE38DE093E001
S1130080215080409040E1F700C00000C298F0CFBA
S1070090F894FFCF0E
S9030000FC
