S01C000073696E676C655F6269745F726561645F636F64652E73726563F3
S11300000C942A000C9434000C9434000C943400A6
S11300100C9434000C9434000C9434000C9434008C
S11300200C9434000C9434000C9434000C9434007C
S11300300C9434000C9434000C9434000C9434006C
S11300400C9434000C9434000C9434000C9434005C
S11300500C94340011241FBECFE5D4E0DEBFCDBF25
S11300600E9436000C943F000C940000D09AB8987B
S1130070B09B02C081E08BBB80E090E00895F894CF
S1050080FFCFAC
S9030000FC
