S01E0000696E746572727570745F636F6E636570745F636F64652E73726563D4
S11300000C942A000C9456000C9434000C94340084
S11300100C9434000C9434000C9434000C9434008C
S11300200C9434000C9434000C9434000C9434007C
S11300300C9434000C9434000C9434000C9434006C
S11300400C9434000C9434000C9434000C9434005C
S11300500C94340011241FBECFE5D4E0DEBFCDBF25
S11300600E9436000C9468000C940000D09AB89A50
S11300708A98929A85B7826085BF8BB780648BBF5C
S11300807894D89A2FE986E891E0215080409040F6
S1130090E1F700C00000D8982FE986E891E02150EC
S11300A080409040E1F700C00000EBCF1F920F9218
S11300B00FB60F9211248F939F9398B381E08927F1
S11300C088BB9F918F910F900FBE0F901F90189532
S10700D0F894FFCFCE
S9030000FC
